:020000040800F2
:1000000000020020A1010008A1020008A1020008CE
:10001000A1020008A1020008A1020008A102000834
:10002000A1020008A1020008A1020008C102000804
:10003000A1020008A1020008A10200088103000833
:10004000A1020008A1020008A1020008A102000804
:10005000A1020008A1020008A1020008A1020008F4
:10006000A1020008A1020008A1020008A1020008E4
:10007000A1020008A1020008A1020008A1020008D4
:10008000A1020008A1020008A1020008A1020008C4
:10009000A1020008A1020008A1020008A1020008B4
:1000A000A1020008A1020008A1020008A1020008A4
:1000B000A1020008A1020008A1020008A102000894
:1000C000A1020008A1020008A1020008A102000884
:1000D000A102000871140008A1020008A102000892
:0C00E000A1020008A1020008A102000813
:1000F00010B582B000F0DCFF00F0B2F91B484FF4FD
:100100000071102201F06CF9022218484FF480614E
:1001100001F066F91648002101F042F8002401F0D0
:100120007FFC12484FF40051062201F059F9009467
:100130001048F0214022104B00F0C2FB44B1237F55
:100140000E2B0DD04FF4FA7000F002FC002CF6D10B
:100150000A484FF4D871402201F07AFC0446F1E7D6
:10016000204600F02DFC0024ECE700BF0008014011
:100170008405002060060020B11C00080021000852
:10018000704700BF000000000000000000000000F9
:10019000FEE700BF000000000000000000000000BB
:1001A00072B6304880F30988022383F31488BFF3C2
:1001B0006F8F2D4B2D4A93420BD2D943114421F01E
:1001C000030119444FF05532043B43F8042F8B428E
:1001D000FBD1274B83420CD226491A1D891A21F0E4
:1001E000030119444FF05532043B43F8042F8B426E
:1001F000FBD101F015FA2049204B99420BD2C8439C
:10020000184420F003001E4C04300023E258CA506A
:1002100004338342FAD11B4B1B4A93420AD2D9437F
:10022000114421F0030119440022043B43F8042F38
:100230008B42FBD1154D164CFFF7A2FFAC4204D206
:1002400054F8043B9847AC42FAD3124D124CFFF7D6
:100250004FFFAC4204D254F8043B9847AC42FAD367
:10026000FFF796FF0004002000000020000200209D
:100270000002002003040020000400201C040020D1
:10028000182200082004002050070020EC0000087D
:10029000EC000008EC000008EC0000080000000082
:1002A000FEE700BF000000000000000000000000AA
:1002B00000F08EFA00DF00BF000000000000000028
:1002C000EFF30983203383F30988002383F3118834
:1002D000704700BF000000000000000000000000A8
:1002E00008B5094A094B002199600720DA601021FE
:1002F00000F08EF80A20202100F08AF8BDE80840BE
:100300000B20802100F084B80003FA0500ED00E026
:10031000202383F31188164B5B6813F4006319D014
:10032000EFF30983A3F1200282F3098811494FF00A
:1003300080708A6943F8040CD07F096892688968E4
:1003400058B1914294BF0022012262B10A4A43F897
:10035000082C704783F311887047914234BF002204
:100360000122002AF2D1054A43F8082C704700BF49
:1003700000ED00E038050020B1020008B4020008DA
:1003800008B5202383F3118800F09AF8002383F343
:100390001188BDE80840FFF7BBBF00BF00000000A8
:1003A0002DE9F04FC1F80CD0D0F80CD0BDE8F08F9B
:1003B000002383F311882846A04700F0F9FA70471C
:1003C00000F0030330B4DB00FF249C40994001227D
:1003D00000F01F039A4020F0030303F1604303F58C
:1003E0006143D3F800534009800025EA040400F17A
:1003F00060400C4300F56140C3F80043C0F8802121
:1004000030BC0260704700BF000000000000000028
:1004100000F00303DB00FF229A40994020F0030024
:1004200000F1604000F56D40836923EA02030B434D
:100430008361704700000000000000000000000021
:10044000024B034A9B699A61FEE700BF3805002012
:10045000101E000800000000000000000000000066
:1004600000B583B0FFF73CFF00F0DAF800F058F871
:1004700000F036FD00F06CFD40210B4800F0B8F9AB
:100480000A49012288610277002383F3118862B64A
:100490000748896988610093C021064B064800F02F
:1004A0000FFA03B05DF804FB20040020380500209B
:1004B000201E00084104000868040020000000001D
:1004C00070B5134B9B69DA7F0AB1013ADA771A6A81
:1004D000104C01321A62E36822680133A242E360E1
:1004E00014D09668013E966086B91168D56821607F
:1004F000D66000234C6083F311881069A84720233D
:1005000083F3118822689368002BEED070BD00BF82
:100510003805002028050020000000000000000031
:10052000044B4FF0FF3100225B601B609960DA6082
:10053000704700BF280500200000000000000000F8
:1005400070B40C4E3468A5680361A942C26004D936
:100550002468491BA5688D42FAD36368B4420460DD
:10056000436060601860816002D0A368591AA1607E
:1005700070BC70472805002000000000000000004B
:100580000368074A934203D0996882680A449A60D4
:1005900042680021136003685A60C160704700BF61
:1005A00028050020000000000000000000000000FE
:1005B00010B4202383F31188037F0D2B11D8DFE8BB
:1005C00003F026101007100B101010101010100B55
:1005D000436A9A6801329A6090E80C001A600268D7
:1005E00053604FF0FF34002381680C4A4462037764
:1005F000126893688B42FBD251680023026041600D
:100600005060086083F311885DF8044B7047002345
:1006100083F311885DF8044B704700BF3805002054
:10062000034B00225B601B605B611B619A6070473B
:10063000380500200000000000000000000000005D
:1006400000228168084B10B4044602771B689A6840
:100650008A42FBD25A682046236062605C60146064
:100660005DF8044B704700BF380500200000000013
:10067000084B70B41A689969146814260125087724
:10068000CE77636015771C60104670BC9A61FFF7E7
:1006900087BE00BF380500200000000000000000F9
:1006A00030B54B1C87B0054611D00C4C01A8A3698E
:1006B0000B4AFFF745FF2846FFF7DAFF049B13B10B
:1006C00001A8FFF75DFFA369586A07B030BDFFF7C7
:1006D000CFFF024CA369586A07B030BD380500202F
:1006E000B10500080000000000000000000000004C
:1006F000DFF858C0F0B4DCF818708568BC680646AE
:10070000A54241620DD80022634602771B689A68B1
:100710009542FBD95A68336072605E601660F0BC27
:10072000704700233B7763461B689A689442FBD965
:100730005A6801243B607A605F60176034773946FD
:100740003046CCF81860F0BCFFF72ABE3805002010
:100750000E4AF0B410689569036801271426002139
:10076000AC6813605A60077703469061EE7729778B
:1007700000E01B689A68A242FBD25A6829462B60A7
:100780006A605D601560F0BCFFF70ABE38050020A6
:100790000D4A70B410689569036801260021AC68A1
:1007A00013605A60067703469061297700E01B6862
:1007B0009A68A242FBD85A6829462B606A605D603D
:1007C000156070BCFFF7ECBD38050020000000008C
:1007D000034B9B69DB7F0BB1FFF7DABFFFF7B8BFB5
:1007E00038050020000000000000000000000000AC
:1007F0002DE9F003114C0022656900F12C064FF041
:1008000002094FF0140800F128074FF0010C456170
:100810000461816080F81C90606180F81F80016431
:1008200080F81EC04277C2638263026282612861DF
:1008300087620663C662BDE8F00370473805002092
:100840002DE9F00F194D243946186F6982B0C66042
:10085000435000F128010191DFF854C00A990023A8
:100860007160C6F820C04377C3638363036283610A
:10087000019B00F12C0B4FF0020A4FF014094FF0CE
:100880000108826005614761026480F81CA080F85D
:100890001F9080F81E80686138618362C0F830B0B4
:1008A000C0F82CB002B0BDE8F00F7047380500204A
:1008B000B10300080000000000000000000000007C
:1008C0002DE9F84F1D460446202383F311881C4E62
:1008D000A1F12403D6F814E0C7180A99DFF864B030
:1008E000C76000F1280CC5504FF0020A002500F146
:1008F0002C034FF014094FF001087960C7F820B0BD
:10090000294682600661C0F814E0026480F81CA0E9
:1009100080F81F9080F81E8045777061C5638563FD
:1009200005628561CEF810000363C362C0F828C079
:10093000FFF7DEFE2B4683F311882046BDE8F88FD3
:1009400038050020B103000800000000000000008E
:1009500008B50146202383F311880620FFF7A0FE87
:10096000002383F3118808BD000000000000000090
:1009700038B50E4B9C69254655F8283F6062AB425E
:1009800007D01A681846A262FFF75AFEA36AAB4264
:10099000F7D1637F9B0704D1226963691A612269D9
:1009A00053610E20BDE83840FFF762BE38050020D5
:1009B000202383F31188FFF7DBBF00BF0000000096
:1009C0000146202383F31188827F0023013AD2B2AB
:1009D000827783F3118812B9037F0E2B00D0704702
:1009E000437F03F00303012B02D0022B07D0704793
:1009F000026943691A610269536100F0F9BA026938
:100A00004369406C1A610A69536100F041BB00BF41
:100A1000F0B583B017461D460E4600F0A9FA98B10E
:100A2000202383F31188089B314600933A462B46D6
:100A3000FFF706FF0123437700210446FFF758FE26
:100A4000002383F31188204603B0F0BD00000000AE
:100A50000023406000608360704700BF000000001A
:100A6000F8B582682F4B05469C69002A54D0A168CE
:100A70009368994206D9137F9160042B33D0052BDC
:100A80001DD09BB12B4603E09968A268914202D326
:100A90001B689D42F8D15A68236062605C601460F4
:100AA00065620420BDE8F840FFF7E2BD92E80A0065
:100AB0001960104612685360FFF7C2FDE2E7136841
:100AC0005068566A036017683346786002E0986899
:100AD000814202D81B689E42F9D159681360516067
:100AE0005A600A60CEE713685068566A0360176858
:100AF0003346786002E09868884202D31B689E42C1
:100B0000F9D15968136051605A600A60B268A168EF
:100B100093688B42AFD3B5E7E36B8460C360E06357
:100B2000F8BD00BF380500200000000000000000F4
:100B300008B5202383F31188FFF792FF002383F386
:100B4000118808BD00000000000000000000000047
:100B5000174A38B59069202383F31188C46B256840
:100B6000E368A542C3631CD0016C4BB11A689A427A
:100B700003D09268914238BF1146DB68002BF5D153
:100B80002B68EA6B8160236028465C600021A560C9
:100B9000E260EC63FFF7ACFD002383F3118820468D
:100BA00038BD0023A360002383F31188204638BD9D
:100BB00038050020000000000000000000000000D8
:100BC00008B5826B037F1143082B81630BD0092B7F
:100BD00000D008BD436A19408B42FAD1FFF730FDBF
:100BE0000023436208BD436A1942F7D108BD00BF24
:100BF00070B504680546A0420E4609D0E3686068F7
:100C00003343E360A168FFF7DBFF2468A542F5D119
:100C100070BD00BF000000000000000000000000E8
:100C200010B4024661B1094B0D209B695A625468A9
:100C300083E81400536023605DF8044BFFF730BD78
:100C40004FF0FF305DF8044B704700BF38050020BF
:100C500030B4029C00250A44856004620261406051
:100C6000006041618161C160C36130BC704700BFF9
:100C700003464269806910B5824298681BD0541CB3
:100C800001305C619860117059691A6991420BD208
:100C9000186898420DD002681A605360FFF7D0FCC4
:100CA00000234362184610BD1868DA6898425A61FA
:100CB000F1D1002010BD0028E1D06FF0030010BD7D
:100CC00070B520230E46044683F31188C3692BB107
:100CD000984703E0FFF7A4FF002815DBA56820462E
:100CE0003146002DF6D0A2692169531C8B42A361C5
:100CF00005F1FF3528BFE368A560107828BFA36120
:100D0000002383F3118870BD2B4683F3118870BDD7
:100D10002DE9F0471E460446D0F81C80202383F3BB
:100D200011884FF0000901EB020A4F1CB8F1000FC7
:100D300005D02046C04702E0FFF772FFF0B9A56872
:100D400020463146002DF7D0A369013D5A1CA2610F
:100D5000A5601B7807F8013C2369A2699A4224BF69
:100D6000E368A361002383F31188574509F1010962
:100D700007D0202383F311880137D7E72B4683F36D
:100D800011884846BDE8F087000000000000000020
:100D900030B4029C8D18056104624060006082607E
:100DA00041618161C160C36130BC704700000000D7
:100DB000F8B504460F461646202383F3118803E056
:100DC000FFF72EFF002819DBA56820463146002DCD
:100DD000F6D06369013D5A1C6261A5601F702369EA
:100DE00062699A4224BFE3686361E3690BB12046FC
:100DF0009847002383F311881846F8BD2B4683F3E8
:100E00001188F8BD00000000000000000000000094
:100E10004169826910B591420346816816D018690C
:100E20004C1C511C9C609961814214780BD218684B
:100E3000984206D002681A605360FFF701FC002355
:100E40004362204610BDDA689A61F0E70029E6D0D7
:100E50006FF0020010BD00BF0000000000000000A5
:100E60002DE9F84F9A4604460E461746D0F81C90D6
:100E7000202383F311884FF00008A56806F1010BC9
:100E800020466B1EDDB16269A360531C6361337839
:100E90001370236962699A4224BFE3686361B9F100
:100EA000000F00D0C847002383F31188013F08F1E9
:100EB00001080DD0202383F311885E46DDE720462C
:100EC0005146FFF7ADFE0028D7D02B4683F311889B
:100ED0004046BDE8F88F00BF0000000000000000A1
:100EE0000548064A0649074B20F0070022F0070292
:100EF00008601A60704700BF5707002000100020EC
:100F000058050020540500200000000000000000EB
:100F1000202383F31188094A0949136809680730B7
:100F200020F00700C91A88429BBFC018106000203B
:100F30001846002383F31188704700BF580500202E
:100F40005405002000000000000000000000000028
:100F5000044B0549002203F1100019609A60DA6021
:100F6000FFF776BD60050020110F000800000000AB
:100F7000F8B51E4E0731002818BF064606F11000CE
:100F800021F0070506F10804FFF7D2FD03E05A68D7
:100F9000954211D91C462368002BF8D1FFF7D8FDE4
:100FA00033680BB305F108009847E8B10660456067
:100FB00000F108042046F8BD05F10801914208D966
:100FC0001A6822601C4644F8086BFFF7C1FD2046F2
:100FD000F8BD6FF007001F68401B10445A185F509F
:100FE000506022605D60EDE70024E3E760050020CB
:100FF00070B5064650F8080CA6F1080400F1080583
:101000001030FFF795FD2B46AB4204D0A34202D32C
:101010001B68AB42FAD11A681AB1944201D3134645
:10102000F2E756F8041C46F8082C1C6001F108028F
:1010300056F8085CA018A84209D05A6802F10801C5
:1010400019448C4211D0BDE87040FFF781BD406863
:10105000A2580144083146F8041C46F8082C5A6886
:1010600002F1080119448C42EDD156F8040C56F8EF
:10107000081C0244083283E80600BDE87040FFF710
:1010800067BD00BF0000000000000000000000007D
:10109000202383F31188026800230A60016083F330
:1010A00011887047000000000000000000000000F0
:1010B00008B500F0E5F800F0C3F8044800F060F966
:1010C00000F046F8BDE8084000F0B2BA901E0008F3
:1010D0000C30FFF71DBE00BF000000000000000044
:1010E0000C304FF0FF33FFF713BE00BF00000000CD
:1010F0003030FFF7B5BE00BF000000000000000068
:1011000030304FF0FF33FFF7ABBE00BF00000000F0
:101110000C30FFF7D5BD00BF00000000000000004C
:101120000C304FF0FF31FFF7CBBD00BF00000000D7
:101130003030FFF73DBE00BF00000000000000009F
:1011400030304FF0FF32FFF733BE00BF0000000029
:1011500000F00EBA000000000000000000000000D7
:1011600070B50E4D044682B040F8045B0126009431
:101170000B461546606004F1540104F10C00267220
:101180004022FFF765FD00942B4604F1300004F186
:1011900094014022FFF7FCFD02B070BD401E000824
:1011A00010B52023044683F3118800F0F9F90223D7
:1011B0002372002383F3118810BD00BF00000000DC
:1011C00038B5436904460D463BB1294604F10C008D
:1011D000FFF74EFD00280BDB38BD04300421FFF77C
:1011E00007FD294604F10C00FFF742FD0028F3DA61
:1011F000201D8021BDE83840FFF7FABC0000000048
:10120000014B5B6883607047001000E00000000045
:10121000084B094982685B6809689B1AC2685B1AB7
:101220009342836004D80269934238BF03617047D8
:10123000C3607047001000E080050020000000003F
:1012400010B50B4C86B000234FF0FF31094A0591D1
:101250002360049353680849084A01A80393019145
:101260000292FFF7D5FF039B236006B010BD00BFBD
:1012700080050020001000E0011200081112000893
:10128000154BF0B40021154A4FF0FF34186945F6AC
:10129000BF561C61124819610725DF68DC60D96000
:1012A000566091601560C2680E4942F08072C2605B
:1012B00008680D4A40F001000860D969F0BC41F0AF
:1012C0008051D961D96941F00061D961136843F453
:1012D00080731360704700BF0010024010E000E010
:1012E000F0ED00E0001000E00070004000000000A1
:1012F0001E4B1A68194642F001021A600B681B4A1D
:101300009B07FBD51168002301F0F901116011461C
:1013100053604B68154A13F00C0FFAD1136811464D
:1013200043F4803313600B68104A9803FBD553686D
:10133000114643F4A0235360136843F08073136095
:101340000B680A4A9B01FBD5094B10214FF4A020E2
:10135000506019605368114643F0020353604B68B4
:1013600003F00C03082BFAD1704700BF00100240B5
:10137000002002400000000000000000000000000B
:10138000114B30B49A69114C42F03D029A610368E6
:101390000F49E36083680F4A636045680E4B256020
:1013A000C468CC6044694C6004690C60816930BCDD
:1013B000D160016A5160C1691160426ADA60C26A33
:1013C0005A60826A1A6070470010024000080140AB
:1013D000000C01400010014000140140000000001A
:1013E000032AF0B42BD0042A08BF4161154C002316
:1013F000A75C1D461C461A46082611F0800F4FEACE
:1014000002124FEA03134FEA05154FEA04140CBF0A
:1014100042F00F023B4311F4004F0CBF45F00F05A3
:101420003C43013E4FEA4101E7D141680D402C4366
:1014300044600168F0BC0A401343036070470161D7
:10144000D4E700BF601E000800000000000000009C
:10145000034B9A8992B242F080029A81704700BF92
:101460000038014000000000000000000000000003
:101470003A4870B5D0F8D450AE892C88B6B2A4B230
:10148000E30544D4202383F31188A10621D508E085
:10149000A9883248C9B2FFF793FE2C88A4B2A006EF
:1014A00017D52207F4D014F0080F14BF80210021B3
:1014B00014F0010F18BF41F02001A30748BF41F00D
:1014C00040016407264848BF41F48071FFF790FB54
:1014D000DEE7002383F31188310601D5220625D4E7
:1014E000630610D5202383F311881D481021FFF7D0
:1014F0007FFB002383F3118826F0C006B6B24FF6B7
:10150000BF73AE812B80BDE87040FEF701BF202382
:1015100083F311884FF400710430FFF769FB002357
:1015200083F311884FF6FF632B80ABE7202383F30F
:1015300011880C48FFF76CFC002805DB80B2A880FE
:10154000002383F31188CBE705480821FFF750FB00
:1015500026F0C00343F04003AB81F1E7840500208F
:1015600088050020B40500200000000000000000F5
:1015700010B5054C00212046044AFFF7F1FD044B4D
:10158000C4F8D43010BD00BF8405002051140008F9
:1015900000380140000000000000000000000000D2
:1015A00038B5037A184C0546002918BF0C46012BA4
:1015B0001DD022681549D5F8D430B1FBF2F292B2B1
:1015C0001A81A288E188208942F4045241F0400443
:1015D00042F02C0240F0010092B2A4B280B200218D
:1015E0001C8298829A8119801A889B8838BD084B82
:1015F0009842DED1074B25209A69C02142F48042EF
:101600009A61FEF7DDFED4E7801E000800366E0109
:1016100084050020001002400000000000000000CF
:10162000FFF766BE000000000000000000000000A0
:10163000024B5A6842F080625A60704700000140D5
:10164000F0B400F10B0700F10A050C46B1FBF2F60D
:1016500002FB161101F13003392BC8BF01F137032A
:10166000DBB2B4FBF2F431462E4605F80139002C0A
:10167000ECD1B91B3246014401E012F8013F00F8F9
:10168000013B8842F9D1F0BC704700BF0000000068
:101690002DE9F04F89B00DF115030DF1140ACAEBD5
:1016A000030C029383460C461646CDF80CC02178F5
:1016B000621C59B125290CD0DBF80000144685685E
:1016C0005846A8472178621C0029F3D109B0BDE82B
:1016D000F08F61782D2903BFA178A21C012300237C
:1016E0002E2900F0D080302900F0CD80202714462C
:1016F000002506E03278043605EB8505217802EBFB
:101700004505A1F13002D2B2092A04F10104F3D94E
:101710002A29EFD02E294FF0000029D001F0DF0256
:101720004C2A34D0A1F14402342A00F2A580DFE82B
:1017300002F09CA3A3A3A39CA3A3A3A3A39AA3A3E4
:10174000A3A3A334A3A36EA3A3A3A3A3A3A3A3A30D
:10175000A3909CA3A3A3A39CA3A3A3A3A39AA3A383
:10176000A370A334A3A36E003278043602EB4800C2
:1017700014F8011B00EB8008A1F13002D2B2092A53
:10178000F4D92A29F0D001F0DF024C2ACAD12278FC
:10179000002AC7D001341146C4E70A2231685046F6
:1017A00004360193FFF74CFF019BCAEB000000F1E8
:1017B000FF38D1462D1A25EAE5756BB96D425DB14A
:1017C00099F800102D2962D0DBF800205846926865
:1017D000394690470135F7D1B8F1000F0BDBC8440B
:1017E00009F1FF39DBF8002019F8011F926858460B
:1017F0009047C145F6D1002D3FF459AFDBF80020EA
:101800005846926839469047013DF7D14FE710227C
:10181000C4E7D6F800902D4A47F6FF71B9F1000FE2
:1018200008BF914699F800200436002808BF0846F2
:10183000002A45D048444A4601E0824233D05178DC
:1018400001320029F9D1C9EB020000F1FF3820274D
:10185000B0E7326803988DF81420043600F1FF38A1
:101860002027D146A6E7082298E7316804360029E8
:101870001FDB50460A2294E703988DF8141000F1FC
:10188000FF38D14696E75178302701322FE7302FC5
:101890009AD1DBF8002058469268904709F1010977
:1018A00008F1FF3890E7C9EB000000F1FF3820276E
:1018B00080E72D2249428DF814200DF11500D9E75B
:1018C00010464FF0FF38202774E700BFC01E000805
:1018D0000EB400B582B003AB53F8041B1A46019353
:1018E000FFF7D6FE02B05DF804EB03B0704700BF0F
:1018F000002903DD0449054AFFF7EABF044B054907
:10190000DA68FFF7E5BF00BFD01E0008DC1E000844
:1019100028050020E41E0008000000000000000070
:1019200010B5002982B0044606DD1949194A02B0F3
:10193000BDE81040FFF7CCBF1749184AFFF7C8FFB2
:1019400020461749174AFFF7C3FF20461649174A92
:10195000FFF7BEFF20461649164AFFF7B9FF20469B
:101960001549164AFFF7B4FF20461549154AFFF7F7
:10197000AFFF20461449154AFFF7AAFF144B204633
:1019800000931449144A154BFFF7A2FF02B010BD93
:10199000D01E0008EC1E0008F41E0008081F0008F6
:1019A000101F0008241F0008301F0008441F0008F3
:1019B0004C1F0008601F00086C1F0008801F0008F3
:1019C000981F0008AC1F0008D01F0008E41F000883
:1019D00020200008F81F0008102000081C20000824
:1019E00038B504460D4690B1286020460B4900F0FA
:1019F000EFF904442046094900F0C2F960B1421CE5
:101A000000232A600370237823B1204638BD0C6878
:101A1000002CEAD1002038BD2860F4E72C20000813
:101A2000014B1B60704700BF5C06002000000000F7
:101A300010B52023044683F3118804480021FFF7E2
:101A4000D7F82046BDE81040FEF792BF5C060020A4
:101A500000B583B00090034B0020FEF7D9FF03B020
:101A60005DF804FB111B00080000000000000000EE
:101A7000F0B5013A83B00E468F1804460D46236830
:101A800020465B680DF107010122984740B39DF89D
:101A90000710042927D008290FD00D292AD01F2983
:101AA000EDD9BD42EBD2236820469B6898479DF84C
:101AB0000730013505F8013CE1E7B542DFD0236886
:101AC00020469B689847236820469B6820219847BA
:101AD000236820469B689DF80710013D9847CEE794
:101AE000012003B0F0BD20460649FFF7F1FE0120BA
:101AF00003B0F0BD20460449FFF7EAFE002028703D
:101B000003B0F0BD30200008E01F00080000000016
:101B10002DE9F041554B06689B69554AD0F8048081
:101B20009AB030469A615349FFF7D2FE3046524987
:101B3000FFF7CEFE30460AA94022FFF799FF044680
:101B4000002836D169460AA8FFF74AFF6D460746C6
:101B500002E0013445F8040F00206946FFF740FF1A
:101B600040B1082CF5D130464449FFF7B1FE0023BF
:101B70000993DBE71AAA02EB840343F8640C002FF5
:101B8000D4D038463E4900F0D3F830B9ACB1304635
:101B90003C493B4AFFF79CFEC8E738463A4900F00B
:101BA000C7F888B9304614B33649374AFFF790FE74
:101BB000BCE730463549FFF78BFE0020FFF738FFC2
:101BC00000201AB0BDE8F081314D286820B931E01D
:101BD00055F8080F00282DD0394600F0A9F8002844
:101BE000F6D16B682146304601AA98479EE7284DFA
:101BF0002849FFF76DFE2A682C463AB1304626493F
:101C0000FFF766FE54F8082F002AF7D1B8F1000F4D
:101C10000BD0D8F8002042B1444630461E49FFF7A9
:101C200057FE54F8082F002AF7D130461B49FFF71A
:101C30004FFE7BE7B8F1000F0DD0D8F8000050B18F
:101C4000454602E055F8080F28B1394600F070F813
:101C50000028F7D1C5E730463A461149FFF738FE6C
:101C600030461049FFF734FE60E700BF380500201A
:101C7000342000083C200008542000086C20000894
:101C800084200008D01E00088C2000086020000876
:101C90000004002094200008AC200008E01F000889
:101CA000B0200008B4200008000000000000000080
:101CB00008B5094B094A9B694FF40055084C9A61D5
:101CC0002E4666614FF4FA70FEF742FE25614FF42E
:101CD000FA70FEF73DFEF4E738050020D02000083A
:101CE00000080140000000000000000000000000AB
:101CF0000EB400B582B003AB53F8041B1A4601932F
:101D0000FFF7C6FC02B05DF804EB03B0704700BFFC
:101D1000002902DD0249FFF7EBBF0249FFF7E8BFE8
:101D2000D8200008E82000080000000000000000A3
:101D300040F21843C2F2000330B41C68054602E0CA
:101D4000D01A16D1ABB115F8013BE21850781A46FB
:101D500000F00300012808BF03F1200211F8013B45
:101D6000E018407800F003000128E9D12033D01AB0
:101D7000E9D030BC704700BF000000000000000048
:101D8000F0B404780CB30E780746C6B1A64210D062
:101D90004B1C01E094420BD01D4613F8012B002A86
:101DA000F8D144780130002CEED12E78074600E0BF
:101DB0002646002E14BF38460020F0BC70474478F9
:101DC0000D460130002CDFD1EFE72046F0BC704714
:101DD000F0B40478CCB10E7807469EB10546B44203
:101DE0000AD00A4601E09C4206D012F8013F002BBF
:101DF000F9D1281AF0BC70476C787D1C002CF8D003
:101E00002F46ECE73046F0BC70472046F2E700BFB3
:101E100069646C6500000000000000000000000024
:101E20006D61696E00168211040448080C101418C4
:101E3000001C1D1E1F20000000000000000000000C
:101E400001110008E11000084111000821110008EB
:101E50003111000811110008F1100008D11000081C
:101E6000040204080800030708080808080808080E
:101E70000B0F000000000000000000000000000048
:101E8000009600000000004000000000000000007C
:101E9000FFFFFFFF8888888888888888FFFFFFFF0A
:101EA0008888888888888888FFFFFFFF88888888D6
:101EB00088888888FFFFFFFF8888888888888888C6
:101EC000286E756C6C290000000000000000000006
:101ED00055736167653A2025730D0A007379737431
:101EE000696D6500256C750D0A000000696E666FEE
:101EF000000000004B65726E656C3A2020202020A7
:101F0000202025730D0A0000322E362E32000000EC
:101F1000436F6D70696C65723A2020202020257314
:101F20000D0A000047434320342E382E33000000B2
:101F30004172636869746563747572653A202573CC
:101F40000D0A000041524D76372D4D00436F7265EA
:101F50002056617269616E743A2025730D0A000083
:101F6000436F727465782D4D33000000506F7274AA
:101F700020496E666F3A2020202025730D0A00004C
:101F8000416476616E636564206B65726E656C207A
:101F90006D6F646500000000506C6174666F726D57
:101FA0003A202020202025730D0A000053544D3381
:101FB00032463130302056616C7565204C696E6553
:101FC000204C6F772044656E7369747900000000BF
:101FD000426F6172643A2020202020202020257347
:101FE0000D0A000050454C41544948414E204A4F8B
:101FF0004D424C4F000000004275696C64207469CA
:102000006D653A2020202573257325730D0A000085
:102010004D6179202032203230313500202D2000D2
:1020200030323A32343A30350000000020090000E6
:102030005E4400007368656C6C0000000D0A436824
:102040006962694F532F5254205368656C6C0D0AB6
:10205000000000006A6F6D626C6F5F4F533E20009E
:102060000D0A6C6F676F757400000000746F6F204D
:102070006D616E7920617267756D656E74730D0A9E
:1020800000000000657869740000000068656C70ED
:1020900000000000436F6D6D616E64733A206865E7
:1020A0006C702065786974200000000025732000A2
:1020B00025730000203F0D0A000000000000000012
:1020C000F4200008111D00080000000000000000BE
:1020D000626C696E6B65720055736167653A207456
:1020E0006573740D0A00000073657269616C206F7E
:1020F0006B210A007465737400000000000000008A
:1021000084050020C020000800000000000000003E
:1021100000202020202020202020282828282820B7
:1021200020202020202020202020202020202020AF
:102130002088101010101010101010101010101017
:102140001004040404040404040404101010101007
:1021500010104141414141410101010101010101D1
:102160000101010101010101010101011010101023
:1021700010104242424242420202020202020202A3
:1021800002020202020202020202020210101010F7
:10219000200000000000000000000000000000001F
:1021A000000000000000000000000000000000002F
:1021B000000000000000000000000000000000001F
:1021C000000000000000000000000000000000000F
:1021D00000000000000000000000000000000000FF
:1021E00000000000000000000000000000000000EF
:1021F00000000000000000000000000000000000DF
:1022000000000000000000000000000000000000CE
:0422100000000000CA
:10221800EC1E000821190008DC1E0008F11800084F
:0C22280000000000000000001021000871
:04000005080001A14D
:00000001FF
